{
  "_format": "hh-sol-artifact-1",
  "contractName": "CupV2",
  "sourceName": "contracts/CupV2.sol",
  "abi": [
    {
      "inputs": [],
      "name": "inc",
      "outputs": [],
      "stateMutability": "nonpayable",
      "type": "function"
    },
    {
      "inputs": [],
      "name": "val",
      "outputs": [
        {
          "internalType": "uint256",
          "name": "",
          "type": "uint256"
        }
      ],
      "stateMutability": "view",
      "type": "function"
    }
  ],
  "bytecode": "0x608060405234801561001057600080fd5b50610173806100206000396000f3fe608060405234801561001057600080fd5b50600436106100365760003560e01c8063371303c01461003b5780633c6bb43614610045575b600080fd5b610043610063565b005b61004d61007e565b60405161005a9190610093565b60405180910390f35b600160008082825461007591906100ae565b92505081905550565b60005481565b61008d81610104565b82525050565b60006020820190506100a86000830184610084565b92915050565b60006100b982610104565b91506100c483610104565b9250827fffffffffffffffffffffffffffffffffffffffffffffffffffffffffffffffff038211156100f9576100f861010e565b5b828201905092915050565b6000819050919050565b7f4e487b7100000000000000000000000000000000000000000000000000000000600052601160045260246000fdfea2646970667358221220248a10bc433e82092d47cc7da7080ffc2d501e951bd536b4457ea0865607a39764736f6c63430008040033",
  "linkReferences": {},
  "deployedLinkReferences": {}
}